S00C000055322D322E7372656332
S11300000C9434000C9453000C9451000C94510043
S11300100C9478000C9451000C9451000C945100F1
S11300200C9451000C9451000C9451000C94510008
S11300300C9451000C9451000C9451000C945100F8
S11300400C9451000C9451000C9451000C945100E8
S11300500C9451000C9451000C9451000C945100D8
S11300600C9451000C94510011241FBECFEFD8E022
S1130070DEBFCDBF11E0A0E0B1E0E0EFF1E002C0EF
S113008005900D92A230B107D9F721E0A2E0B1E0CA
S113009001C01D92A330B207E1F70E94BA000C948C
S11300A0F6000C9400001F920F920FB60F921124C9
S11300B08F9381E0809301018F910F900FBE0F9079
S11300C01F90189589B190E08095909595958795A6
S11300D0959587959595879580930001089595B199
S11300E08091000180958770987F892B85B9089548
S11300F01F920F920FB60F9211242F933F934F9399
S11301005F936F937F938F939F93AF93BF93CF939B
S1130110EF93FF9386B1C8B1C095C27080FD05C04E
S1130120109201010E94620004C087E080930001E4
S11301304198CC2359F058982FEF89E698E1215043
S113014080409040E1F700C00000589A0E946F0080
S1130150FF91EF91CF91BF91AF919F918F917F913B
S11301606F915F914F913F912F910F900FBE0F9020
S11301701F901895509A589A84B1876084B9399A17
S113018085B1887F85B98BB18C638BB9409AE9E6D8
S1130190F0E0808182608083E89AE8E6F0E0808184
S11301A082608083ECE6F0E08081836080837894D1
S11301B088B18093020180910101882369F08091C4
S11301C00001882341F08091000181508093000157
S11301D00E946F0001C0419A2FEF83ED90E32150FC
S11301E080409040E1F700C00000E5CFF894FFCFD5
S10501F0070101
S9030000FC
