S00C000055362D322E737265632E
S11300000C9453000C9470000C9470000C947000C9
S11300100C9470000C9470000C9470000C9470009C
S11300200C9470000C9470000C9470000C9470008C
S11300300C9470000C9470000C9470000C9470007C
S11300400C9470000C9470000C94AC000C94700030
S11300500C9470000C9470000C9470000C9470005C
S11300600C9470000C947000506F74656E74696F1A
S11300706D657465723A200054656D7065726174C3
S11300807572653A20002D2D2D2D2D2D2D2D2D2D04
S11300902D2D2D2D2D2D2D2D0041444320526573E2
S11300A0756C7473000011241FBECFEFD8E0DEBF5F
S11300B0CDBF11E0A0E0B1E0ECE5FCE002C00590AA
S11300C00D92AE30B107D9F721E0AEE0B1E001C046
S11300D01D92A133B207E1F70E943A010C942C0659
S11300E00C940000E0ECF0E0908195FD04C0909148
S11300F00E019923C9F38093C60008958BE10E94F1
S113010072008BE50E94720082E30E9472008AE40E
S11301100E9472008BE10E9472008BE50E947200C3
S113012088E40E94720008951092C50087E68093C7
S1130130C400E1ECF0E08081886980830E947E0045
S11301400895CF93CFB7F89483E1809300010E9480
S11301507200CFBFCF9108951F920F920FB60F92E6
S113016011242F933F934F935F936F937F938F93B8
S11301709F93AF93BF93EF93FF938091C600833116
S113018021F481E080930E0122C0813119F4109290
S11301900E011DC0E0911001F0E0EF5EFE4F808380
S11301A08091100190E001968F71907880931001F6
S11301B080910F018F5F80930F0180910F01863131
S11301C030F080910001813111F40E94A100FF916F
S11301D0EF91BF91AF919F918F917F916F915F91BB
S11301E04F913F912F910F900FBE0F901F90189534
S11301F0E4E6F0E080818E7F8083EAE7F0E08081AE
S1130200806880838081876080830895DB01ECE7C8
S1130210F0E09081907F90839081982B9083883038
S113022021F48081806C808308C0ECE7F0E0808159
S11302308F7780838081806480838FE19EE401973F
S1130240F1F700C00000EAE7F0E080818064808379
S1130250808186FDFDCF11961C921E9280917800BC
S113026090E011969C938E9320917900922B8D931C
S11302709C930895CF93DF93CDB7DEB766970FB6FF
S1130280F894DEBF0FBECDBF1A821982FE013396E9
S113029084E1DF011D928A95E9F70E9494000E948F
S11302A0F8007894312C0F2EF6E88F2EF0E09F2E74
S11302B0F02D0F2EF8E7AF2EF0E0BF2EF02D0F2E0D
S11302C0F1E0CF2EF1E0DF2EF02D0F2EF4E14F2ED2
S11302D0F02D8E010D5F1F4F0F2EF8E66F2EF0E00C
S11302E07F2EF02D0F2EF8E0EF2EF1E0FF2EF02DF3
S11302F0512C03C00E9472003394E32DF0E0E756C2
S1130300FF4F84918111F6CF8DE00E9472008AE044
S11303100E947200F4018491882359F0352C0E94C4
S113032072003394E32DF0E0EA57FF4F849181117A
S1130330F6CF8DE00E9472008AE00E947200F501FF
S11303408491882359F0352C0E9472003394E32D54
S1130350F0E0E858FF4F84918111F6CFBE016F5F42
S11303607F4F88E00E94060189819A8180529140E2
S11303709A8389839F938F93DF92CF921F924F9298
S11303801F930F930E944D038B810FB6F894DEBF29
S11303900FBECDBF882351F0352C0E9472003394D8
S11303A0F801E30DF11D80818111F7CF8DE00E94EA
S11303B072008AE00E947200F3018491882359F04C
S11303C0352C0E9472003394E32DF0E0E859FF4F7E
S11303D084918111F6CFBE016F5F7F4F82E00E944E
S11303E0060169817A8180E090E00E945C0220E04D
S11303F030E44CE950E40E94C2020E943002698356
S11304007A837F936F93FF92EF921F924F921F9381
S11304100F930E944D038B810FB6F894DEBF0FBE7D
S1130420CDBF882351F0352C0E9472003394F8011B
S1130430E30DF11D80818111F7CF8DE00E947200E0
S11304408AE00E9472003FEF83ED90E331508040D8
S11304509040E1F700C000000E947E00352C4DCF93
S113046070D088F09F5790F0B92F9927B751A0F01A
S1130470D1F0660F771F881F991F1AF0BA95C9F734
S113048012C0B13081F077D0B1E0089574C0672F05
S1130490782F8827B85F39F0B93FCCF386957795E4
S11304A06795B395D9F73EF49095809570956195CD
S11304B07F4F8F4F9F4F0895E89409C097FB3EF4F8
S11304C090958095709561957F4F8F4F9F4F99239D
S11304D0A9F0F92F96E9BB279395F695879577951B
S11304E06795B795F111F8CFFAF4BB0F11F460FFDB
S11304F01BC06F5F7F4F8F4F9F4F16C0882311F033
S113050096E911C0772321F09EE8872F762F05C046
S1130510662371F096E8862F70E060E02AF09A95E1
S1130520660F771F881FDAF7880F9695879597F9D6
S1130530089557FD9058440F551F59F05F3F71F0CF
S11305404795880F97FB991F61F09F3F79F0879536
S11305500895121613061406551FF2CF4695F1DFBF
S113056008C0161617061806991FF1CF869571054F
S1130570610508940895E894BB2766277727CB0183
S113058097F908950BD078C069D028F06ED018F090
S1130590952309F05AC05FC01124EECFCADFA0F33F
S11305A0959FD1F3950F50E0551F629FF001729F04
S11305B0BB27F00DB11D639FAA27F00DB11DAA1F23
S11305C0649F6627B00DA11D661F829F2227B00D70
S11305D0A11D621F739FB00DA11D621F839FA00DFB
S11305E0611D221F749F3327A00D611D231F849F4B
S11305F0600D211D822F762F6A2F11249F575040A2
S11306008AF0E1F088234AF0EE0FFF1FBB1F661F3C
S1130610771F881F91505040A9F79E3F510570F0F5
S113062014C0AACF5F3FECF3983EDCF38695779530
S11306306795B795F795E7959F5FC1F7FE2B880FF0
S1130640911D9695879597F9089597F99F6780E886
S113065070E060E008959FEF80EC089500240A9410
S11306601616170618060906089500240A94121689
S11306701306140605060895092E0394000C11F4BC
S1130680882352F0BB0F40F4BF2B11F460FF04C069
S11306906F5F7F4F8F4F9F4F0895AEE0B0E0E3E56B
S11306A0F3E00C9403060D891E898F89988D26E04A
S11306B02C831A83098397FF02C080E090E8019796
S11306C09E838D83AE01455E5F4F698D7A8DCE0129
S11306D001960E947D034D815E8157FD0AC02F81E2
S11306E03885421753070CF49A01F801E20FF31FFF
S11306F010822E96E4E00C941F06ACE0B0E0E3E830
S1130700F3E00C94F5057C016B018A01FC0117826E
S11307101682838181FFBDC1CE0101964C01F70190
S11307209381F60193FD859193FF81916F01882355
S113073009F4ABC1853239F493FD859193FF81911E
S11307406F01853229F4B70190E00E946505E7CF77
S1130750512C312C20E02032A0F48B3269F030F49B
S1130760803259F0833269F420612CC08D3239F023
S1130770803339F4216026C02260246023C02860BD
S113078021C027FD27C030ED380F3A3078F426FF1A
S113079006C0FAE05F9E300D1124532E13C08AE088
S11307A0389E300D1124332E20620CC08E3221F479
S11307B026FD6BC1206406C08C3611F4206802C08B
S11307C0883641F4F60193FD859193FF81916F0181
S11307D08111C1CF982F9F7D9554933028F40C5FDD
S11307E01F4FFFE3F9830DC0833631F0833771F077
S11307F0833509F05BC022C0F801808189830E5FD4
S11308001F4F44244394512C540115C03801F2E085
S11308106F0E711CF801A080B18026FF03C0652D06
S113082070E002C06FEF7FEFC5012C870E945A056C
S11308302C0183012C852F77222E17C03801F2E07A
S11308406F0E711CF801A080B18026FF03C0652DD6
S113085070E002C06FEF7FEFC5012C870E944F0547
S11308602C012C852068222E830123FC1BC0832DA0
S113087090E048165906B0F4B70180E290E00E9477
S113088065053A94F4CFF50127FC859127FE819103
S11308905F01B70190E00E94650531103A94F1E0E0
S11308A04F1A51084114510471F7E5C0843611F010
S11308B0893639F5F80127FF07C06081718182818B
S11308C093810C5F1F4F08C060817181882777FD79
S11308D08095982F0E5F1F4F2F76B22E97FF09C079
S11308E090958095709561957F4F8F4F9F4F2068AD
S11308F0B22E2AE030E0A4010E949705A82EA81881
S113090044C0853729F42F7EB22E2AE030E025C07A
S1130910F22FF97FBF2E8F36C1F018F4883579F0A5
S1130920B4C0803719F0883721F0AFC02F2F206171
S1130930B22EB4FE0DC08B2D8460B82E09C024FFE6
S11309400AC09F2F9660B92E06C028E030E005C08B
S113095020E130E002C020E132E0F801B7FE07C038
S113096060817181828193810C5F1F4F06C0608119
S1130970718180E090E00E5F1F4FA4010E949705F3
S1130980A82EA818FB2DFF77BF2EB6FE0BC02B2D6B
S11309902E7FA51450F4B4FE0AC0B2FC08C02B2D5F
S11309A02E7E05C07A2C2B2D03C07A2C01C0752C09
S11309B024FF0DC0FE01EA0DF11D8081803311F486
S11309C0297E09C022FF06C07394739404C0822F49
S11309D0867809F0739423FD13C020FF06C05A2CB7
S11309E0731418F4530C5718732C731468F4B70168
S11309F080E290E02C870E94650573942C85F5CFE6
S1130A00731410F4371801C0312C24FF12C0B7013D
S1130A1080E390E02C870E9465052C8522FF17C097
S1130A2021FF03C088E590E002C088E790E0B701A9
S1130A300CC0822F867859F021FD02C080E201C0EB
S1130A408BE227FD8DE2B70190E00E946505A514B5
S1130A5038F4B70180E390E00E9465055A94F7CF1B
S1130A60AA94F401EA0DF11D8081B70190E00E947F
S1130A706505A110F5CF332009F451CEB70180E20A
S1130A8090E00E9465053A94F6CFF701868197813C
S1130A9002C08FEF9FEF2C96E2E10C941106FC014B
S1130AA00590615070400110D8F7809590958E0F95
S1130AB09F1F0895FC016150704001900110D8F708
S1130AC0809590958E0F9F1F08950F931F93CF933A
S1130AD0DF93182F092FEB018B8181FD03C08FEF6A
S1130AE09FEF20C082FF10C04E815F812C813D8129
S1130AF0421753077CF4E881F9819F012F5F3F4F30
S1130B0039832883108306C0E885F985812F0995E8
S1130B10892B29F72E813F812F5F3F4F3F832E83FF
S1130B20812F902FDF91CF911F910F910895FA019A
S1130B30AA27283051F1203181F1E8946F936E7F18
S1130B406E5F7F4F8F4F9F4FAF4FB1E03ED0B4E009
S1130B503CD0670F781F891F9A1FA11D680F791F4A
S1130B608A1F911DA11D6A0F711D811D911DA11D5B
S1130B7020D009F468943F912AE0269F112430196B
S1130B80305D3193DEF6CF010895462F4770405D06
S1130B904193B3E00FD0C9F7F6CF462F4F70405DB5
S1130BA04A3318F0495D31FD4052419302D0A9F710
S1130BB0EACFB4E0A6959795879577956795BA950A
S1130BC0C9F700976105710508959B01AC010A2ED0
S1130BD006945795479537952795BA95C9F7620FA7
S1130BE0731F841F951FA01D08952F923F924F924B
S1130BF05F926F927F928F929F92AF92BF92CF92A9
S1130C00DF92EF92FF920F931F93CF93DF93CDB7B1
S1130C10DEB7CA1BDB0B0FB6F894DEBF0FBECDBF29
S1130C2009942A88398848885F846E847D848C84FA
S1130C309B84AA84B984C884DF80EE80FD800C8103
S1130C401B81AA81B981CE0FD11D0FB6F894DEBFE6
S10F0C500FBECDBFED010895F894FFCF56
S1110C5C11256420C2B043002564206D5600AB
S9030000FC
