S00C000055342D322E7372656330
S11300000C9434000C9451000C9451000C94510045
S11300100C9451000C9451000C9451000C94510018
S11300200C9451000C9451000C9451000C94510008
S11300300C9451000C9451000C9451000C945100F8
S11300400C9451000C9451000C9475000C945100C4
S11300500C9451000C9451000C9451000C945100D8
S11300600C9451000C94510011241FBECFEFD8E022
S1130070DEBFCDBF11E0A0E0B1E0E6E6F2E002C0F1
S113008005900D92AC30B107D9F721E0ACE0B1E0B6
S113009001C01D92A033B207E1F70E94FC000C944A
S11300A031010C9400001092C50087E68093C400CF
S11300B0E1ECF0E08081886980830895E0ECF0E071
S11300C0908195FD04C090910C019923C9F380930C
S11300D0C6000895CF93CFB7F89483E180930001CD
S11300E00E945E00CFBFCF9108951F920F920FB66A
S11300F00F9211242F933F934F935F936F937F93AA
S11301008F939F93AF93BF93EF93FF938091C60018
S1130110833121F481E080930C0122C0813119F4F0
S113012010920C011DC0E0910F01F0E0E05FFE4F62
S1130130808380910F0190E001968F719078809375
S11301400F0180910D018F5F80930D0180910D014E
S1130150863130F080910001813111F40E946A00EF
S1130160FF91EF91BF91AF919F918F917F916F918B
S11301705F914F913F912F910F900FBE0F901F9061
S11301801895CF93CFB7F89481E1809300010E9432
S11301905E00CFBFCF910895CF93DF9390910D016F
S11301A081E0911180E0811123C0E0910E01F0E023
S11301B0E05FFE4FC081DFB7F89480910D0181505C
S11301C080930D0120910E0130E02F5F3F4F2F717E
S11301D0307820930E0180910D018B3030F48091A2
S11301E00001833111F40E94C100DFBF8C2F01C0D4
S11301F080E0DF91CF910895CF93DF93CDB7DEB741
S11302002B970FB6F894DEBF0FBECDBF509A589A05
S113021078948BE0E1E0F1E0DE01119601900D921B
S11302208A95E1F70E9453008981882351F08E0159
S11302300E5F1F4F0E945E00F80181918F018111B2
S1130240F9CF0E94CC008823E1F30E945E00FFEF07
S113025021EE84E0F15020408040E1F700C000002E
S1090260F0CFF894FFCF7B
S10F0266114869657220546578743A00F0
S9030000FC
