:100000000C9434000C944B000C9449000C9449005F
:100010000C9470000C9449000C9449000C94490015
:100020000C9449000C9449000C9449000C9449002C
:100030000C9449000C9449000C9449000C9449001C
:100040000C9449000C9449000C9449000C9449000C
:100050000C9449000C9449000C9449000C944900FC
:100060000C9449000C94490011241FBECFEFD8E036
:10007000DEBFCDBF11E0A0E0B1E0E2EAF1E002C0F6
:1000800005900D92A230B107D9F70E9498000C9408
:10009000CF000C9400001F920F920FB60F92112404
:1000A0008F9381E0809301018F910F900FBE0F908D
:1000B0001F90189589B190E08095909595958795BA
:1000C000959587959595879580930001089595B1AD
:1000D0008091000180958770987F892B85B908955C
:1000E0001F920F920FB60F9211242F933F934F93AD
:1000F0005F936F937F938F939F93AF93BF93EF9390
:10010000FF93109201010E945A000E946700FF9124
:10011000EF91BF91AF919F918F917F916F915F917F
:100120004F913F912F910F900FBE0F901F901895F8
:1001300084B1876084B985B1887F85B98BB18C63C0
:100140008BB9409AE9E6F0E0808182608083E89A8A
:10015000E8E6F0E0808182608083ECE6F0E0808178
:10016000816080837894C7E080910101882369F0E1
:1001700080910001882321F080910001815001C00D
:100180008C2F809300010E9467002FEF83ED90E396
:10019000215080409040E1F700C00000E5CFF89486
:0201A000FFCF8F
:0201A200070153
:00000001FF
