:100000000C9453000C9470000C9470000C947000CD
:100010000C9470000C9470000C9470000C947000A0
:100020000C9470000C9470000C9470000C94700090
:100030000C9470000C9470000C9470000C94700080
:100040000C9470000C9470000C9472000C9470006E
:100050000C9470000C9470000C9470000C94700060
:100060000C9470000C947000506F74656E74696F1E
:100070006D657465723A200054656D7065726174C7
:100080007572653A20002D2D2D2D2D2D2D2D2D2D08
:100090002D2D2D2D2D2D2D2D0041444320526573E6
:1000A000756C7473000011241FBECFEFD8E0DEBF63
:1000B000CDBF11E0A0E0B1E0EAEFFEE002C00590A4
:1000C0000D92AE30B107D9F721E0AEE0B1E001C04A
:1000D0001D92A233B207E1F70E94D0010C947B0776
:1000E0000C9400001F920F920FB60F9211248F9361
:1000F0009F93EF93FF938091C6008331C9F18131C3
:10010000D9F1E0911101F0E0EE5EFE4F8083809125
:10011000110190E001968F719927809311018091D0
:100120000F018F5F80930F0180910F01863120F0C6
:1001300080910001813149F0FF91EF919F918F9162
:100140000F900FBE0F901F9018959FB7F89483E102
:100150008093000104C080910E01811104C0809140
:10016000C00085FFF8CF83E18093C6009FBFE4CF36
:1001700081E080930E01E0CF10920E01DDCF8091DF
:10018000C00085FD04C080910E018823C1F38BE17E
:100190008093C60004C080910E01811104C080913B
:1001A000C00085FFF8CF8BE58093C60004C0809126
:1001B0000E01811104C08091C00085FFF8CF82E359
:1001C0008093C60004C080910E01811104C080910B
:1001D000C00085FFF8CF8AE48093C60004C08091F8
:1001E0000E01811104C08091C00085FFF8CF8BE122
:1001F0008093C60004C080910E01811104C08091DB
:10020000C00085FFF8CF8BE58093C60004C08091C5
:100210000E01811104C08091C00085FFF8CF88E4F1
:100220008093C60008951092C50087E68093C400AD
:10023000E1ECF0E08081886980830C94BF009091AC
:100240000F0181E0911180E008959091C00095FD2B
:1002500004C090910E019923C1F38093C6000895C4
:1002600080910F018823E1F0E0911001F0E0EE5E53
:10027000FE4F808190910F01915090930F0120913A
:10028000100130E02F5F3F4F2F7133272093100173
:1002900090910F019B3020F490910001933109F06F
:1002A00008952FB7F89491E19093000104C09091C4
:1002B0000E01911104C09091C00095FFF8CF91E11B
:1002C0009093C6002FBF08959FB7F89483E1809361
:1002D000000104C080910E01811104C08091C00012
:1002E00085FFF8CF83E18093C6009FBF08959FB735
:1002F000F89481E18093000104C080910E01811186
:1003000004C08091C00085FFF8CF81E18093C600D2
:100310009FBF0895E4E6F0E080818E7F8083EAE766
:10032000F0E0808180688083808187608083089589
:10033000FB018830910581F120917C002F7720937B
:100340007C0020917C00206420937C0090917C00B4
:10035000907F90937C0090917C00892B80937C000F
:100360008FE19EE40197F1F700C0000080917A00D0
:10037000806480937A0080917A0086FDFCCF1182A0
:1003800010828091780090E09183808320917900A1
:10039000922B91838083089520EC20937C00D6CF0C
:1003A000CF93DF93CDB7DEB766970FB6F894DEBF75
:1003B0000FBECDBF1E8A1D8A8E010F5F1F4F84E1C5
:1003C000F80111928A95E9F71092C50087E68093AB
:1003D000C4008091C10088698093C1000E94BF0061
:1003E000809164008E7F8093640080917A008068A1
:1003F00080937A0080917A00876080937A00789465
:1004000086E8282E80E0382E98E7492E90E0592E75
:1004100028E6622E20E0722E3DE0A32E4AE0B42EA4
:1004200051E0C52E51E0D52E64E1962E78E0E72EFE
:1004300071E0F72EE9E9F0E024912223E1F090E069
:1004400004C080910E01811104C08091C00085FF1D
:10045000F8CF2093C6009F5FE92FF0E0E756FF4FEB
:1004600024912111F2CF8091C00085FD08C08091B8
:100470000E01811104C08091C00085FFF8CFA092C9
:10048000C60004C080910E01811104C08091C0009B
:1004900085FFF8CFB092C600F10124912223E1F04C
:1004A00090E004C080910E01811104C08091C000D1
:1004B00085FFF8CF2093C6009F5FE92FF0E0EA5751
:1004C000FF4F24912111F2CF8091C00085FD08C01B
:1004D00080910E01811104C08091C00085FFF8CF8A
:1004E000A092C60004C080910E01811104C08091C9
:1004F000C00085FFF8CFB092C600F20124912223FC
:10050000A1F090E004C080910E01811104C080919F
:10051000C00085FFF8CF2093C6009F5FE92FF0E071
:10052000E858FF4F24912111F2CFBE016B5E7F4F3F
:1005300088E090E00E9498018D899E8980529140C8
:100540009E8B8D8B9F938F93DF92CF921F929F9262
:100550001F930F930E94830499810FB6F894DEBF16
:100560000FBECDBF9923D9F020E004C080910E01C9
:10057000811104C08091C00085FFF8CF9093C60020
:100580002F5FF801E20FF11D90819111F3CF80915F
:10059000C00085FD08C080910E01811104C08091CA
:1005A000C00085FFF8CFA092C60004C080910E0164
:1005B000811104C08091C00085FFF8CFB092C600C1
:1005C000F30124912223A1F090E004C080910E0158
:1005D000811104C08091C00085FFF8CF2093C60030
:1005E0009F5FE92FF0E0E859FF4F24912111F2CFEE
:1005F000BE016B5E7F4F82E090E00E9498016D89A2
:100600007E8980E090E00E94880325ED38E749E884
:100610005FE30E94EE030E9459036D8B7E8B7F93F4
:100620006F93FF92EF921F929F921F930F930E94DE
:10063000830499810FB6F894DEBF0FBECDBF992316
:10064000D9F020E004C080910E01811104C0809196
:10065000C00085FFF8CF9093C6002F5FF801E20F2E
:10066000F11D90819111F3CF8091C00085FD08C0EC
:1006700080910E01811104C08091C00085FFF8CFE8
:10068000A092C60004C080910E01811104C0809127
:10069000C00085FFF8CFB092C6003FEF83ED90E336
:1006A000315080409040E1F700C000000E94BF0040
:1006B000C1CE0E94CD0388F09F5798F0B92F99279B
:1006C000B751B0F0E1F0660F771F881F991F1AF03D
:1006D000BA95C9F714C0B13091F00E94E703B1E0B8
:1006E00008950C94E703672F782F8827B85F39F0B7
:1006F000B93FCCF3869577956795B395D9F73EF4D6
:1007000090958095709561957F4F8F4F9F4F08957D
:10071000E89409C097FB3EF490958095709561959B
:100720007F4F8F4F9F4F9923A9F0F92F96E9BB2751
:100730009395F695879577956795B795F111F8CFCD
:10074000FAF4BB0F11F460FF1BC06F5F7F4F8F4F38
:100750009F4F16C0882311F096E911C0772321F02E
:100760009EE8872F762F05C0662371F096E8862FC6
:1007700070E060E02AF09A95660F771F881FDAF71D
:10078000880F9695879597F9089557FD9058440FCF
:10079000551F59F05F3F71F04795880F97FB991FE0
:1007A00061F09F3F79F0879508951216130614069D
:1007B000551FF2CF4695F1DF08C01616170618062A
:1007C000991FF1CF86957105610508940895E89405
:1007D000BB2766277727CB0197F908950E9401046C
:1007E0000C9472040E94640438F00E946B0420F0A0
:1007F000952311F00C945B040C94610411240C9467
:10080000E8030E94C50370F3959FC1F3950F50E074
:10081000551F629FF001729FBB27F00DB11D639FB2
:10082000AA27F00DB11DAA1F649F6627B00DA11D58
:10083000661F829F2227B00DA11D621F739FB00DFE
:10084000A11D621F839FA00D611D221F749F33276E
:10085000A00D611D231F849F600D211D822F762F07
:100860006A2F11249F5750409AF0F1F088234AF0E4
:10087000EE0FFF1FBB1F661F771F881F9150504050
:10088000A9F79E3F510580F00C945B040C94E8039B
:100890005F3FE4F3983ED4F3869577956795B795D7
:1008A000F795E7959F5FC1F7FE2B880F911D9695F1
:1008B000879597F9089597F99F6780E870E060E061
:1008C00008959FEF80EC089500240A9416161706E9
:1008D00018060906089500240A9412161306140631
:1008E00005060895092E0394000C11F4882352F094
:1008F000BB0F40F4BF2B11F460FF04C06F5F7F4F4C
:100900008F4F9F4F0895AEE0B0E0E9E8F4E00C941B
:1009100052070D891E898F89988D26E02C831A83B2
:10092000098397FF02C080E090E801979E838D8342
:10093000AE01455E5F4F698D7A8DCE0101960E94B2
:10094000B3044D815E8157FD0AC02F81388542175F
:1009500053070CF49A01F801E20FF31F10822E9650
:10096000E4E00C946E07ABE0B0E0E9EBF4E00C944B
:1009700044076C017B018A01FC0117821682838186
:1009800081FFCCC1CE0101963C01F6019381F701B4
:1009900093FD859193FF81917F01882309F4BAC16A
:1009A000853239F493FD859193FF81917F018532E2
:1009B00029F4B60190E00E94AA06E7CF912C212CE1
:1009C000312CFFE1F315D8F08B3279F038F4803216
:1009D00079F08332A1F4232D20611DC08D3261F0A6
:1009E000803369F4232D216016C0832D8260382E58
:1009F000E32DE4603E2E2AC0F32DF8601DC037FCC5
:100A00002DC020ED280F2A3040F08E32B9F436FC8C
:100A100081C1232D2064322E19C036FE06C08AE023
:100A2000989E200D1124922E11C0EAE02E9E200DDA
:100A30001124222EF32DF0623F2E08C08C3621F4B3
:100A4000832D8068382E02C0883641F4F70193FD6B
:100A5000859193FF81917F018111B3CF982F9F7D65
:100A60009554933028F40C5F1F4F9FE399830DC07A
:100A7000833631F0833771F0833509F059C021C0D6
:100A8000F801808189830E5F1F4F88248394912C05
:100A9000530113C02801F2E04F0E511CF801A08051
:100AA000B18036FE03C0692D70E002C06FEF7FEFAA
:100AB000C5010E949F064C018201F32DFF773F2E56
:100AC00016C0280122E0420E511CF801A080B1801E
:100AD00036FE03C0692D70E002C06FEF7FEFC501E5
:100AE0000E9494064C01F32DF0683F2E820133FCE6
:100AF0001BC0822D90E088169906B0F4B60180E202
:100B000090E00E94AA062A94F4CFF50137FC859163
:100B100037FE81915F01B60190E00E94AA06211084
:100B20002A9421E0821A91088114910471F7E8C097
:100B3000843611F0893641F5F80137FE07C060812F
:100B40007181828193810C5F1F4F08C06081718128
:100B5000072E000C880B990B0E5F1F4FF32DFF76AD
:100B60003F2E97FF09C090958095709561957F4FB6
:100B70008F4F9F4FF0683F2E2AE030E0A3010E9484
:100B8000E606882E861845C0853731F4232D2F7E42
:100B9000B22E2AE030E025C0932D997FB92E8F36F2
:100BA000C1F018F4883579F0B5C0803719F088376E
:100BB00021F0B0C0E92FE061BE2EB4FE0DC0FB2DC8
:100BC000F460BF2E09C034FE0AC0292F2660B22E61
:100BD00006C028E030E005C020E130E002C020E19E
:100BE00032E0F801B7FE07C0608171818281938194
:100BF0000C5F1F4F06C06081718180E090E00E5F46
:100C00001F4FA3010E94E606882E8618FB2DFF7752
:100C10003F2E36FE0DC0232D2E7FA22E891458F4B0
:100C200034FE0BC032FC09C0832D8E7EA82E05C079
:100C3000B82CA32C03C0B82C01C0B92CA4FE0FC043
:100C4000FE01E80DF11D8081803321F49A2D997EFB
:100C5000A92E09C0A2FE06C0B394B39404C08A2D85
:100C6000867809F0B394A3FC11C0A0FE06C0B214AC
:100C700088F4280C922C9B180EC0B21460F4B601B4
:100C800080E290E00E94AA06B394F7CFB21418F461
:100C90002B1802C0982C212CA4FE10C0B60180E3B2
:100CA00090E00E94AA06A2FE17C0A1FC03C088E73C
:100CB00090E002C088E590E0B6010CC08A2D8678ED
:100CC00059F0A1FE02C08BE201C080E2A7FC8DE2D8
:100CD000B60190E00E94AA06891438F4B60180E3B8
:100CE00090E00E94AA069A94F7CF8A94F301E80D47
:100CF000F11D8081B60190E00E94AA068110F5CF17
:100D0000222009F442CEB60180E290E00E94AA06B9
:100D10002A94F6CFF6018681978102C08FEF9FEF6C
:100D20002B96E2E10C946007FC0105906150704045
:100D30000110D8F7809590958E0F9F1F0895FC01A4
:100D40006150704001900110D8F7809590958E0FFA
:100D50009F1F08950F931F93CF93DF93FB01238170
:100D600021FD03C08FEF9FEF2CC022FF16C04681EC
:100D70005781248135814217530744F4A081B18102
:100D80009D012F5F3F4F318320838C9326813781D4
:100D90002F5F3F4F3783268314C08B01EC01FB018B
:100DA0000084F185E02D0995892BE1F6D80116968E
:100DB0008D919C911797019617969C938E931697F9
:100DC000CE01DF91CF911F910F910895FA01AA27CB
:100DD000283051F1203181F1E8946F936E7F6E5F7E
:100DE0007F4F8F4F9F4FAF4FB1E03ED0B4E03CD02C
:100DF000670F781F891F9A1FA11D680F791F8A1F0F
:100E0000911DA11D6A0F711D811D911DA11D20D075
:100E100009F468943F912AE0269F11243019305D2F
:100E20003193DEF6CF010895462F4770405D419320
:100E3000B3E00FD0C9F7F6CF462F4F70405D4A336D
:100E400018F0495D31FD4052419302D0A9F7EACF35
:100E5000B4E0A6959795879577956795BA95C9F764
:100E600000976105710508959B01AC010A2E069457
:100E70005795479537952795BA95C9F7620F731F10
:100E8000841F951FA01D08952F923F924F925F924D
:100E90006F927F928F929F92AF92BF92CF92DF928A
:100EA000EF92FF920F931F93CF93DF93CDB7DEB7EF
:100EB000CA1BDB0B0FB6F894DEBF0FBECDBF099483
:100EC0002A88398848885F846E847D848C849B84DA
:100ED000AA84B984C884DF80EE80FD800C811B81E8
:100EE000AA81B981CE0FD11D0FB6F894DEBF0FBE17
:0A0EF000CDBFED010895F894FFCF87
:0E0EFA0011256420C2B043002564206D56000F
:00000001FF
