S00C000055362D322E737265632E
S11300000C9434000C9451000C9451000C94510045
S11300100C9451000C9451000C9451000C94510018
S11300200C9451000C9451000C9451000C94510008
S11300300C9451000C9451000C9451000C945100F8
S11300400C9451000C9451000C946A000C945100CF
S11300500C9451000C9451000C9451000C945100D8
S11300600C9451000C94510011241FBECFEFD8E022
S1130070DEBFCDBF11E0A0E0B1E0E8E4F2E002C0F1
S113008005900D92A230B107D9F721E0A2E0B1E0CA
S113009001C01D92A532B207E1F70E94F3000C944F
S11300A022010C940000E0ECF0E0908195FD04C086
S11300B0909102019923C9F38093C6000895CF93C8
S11300C0CFB7F89483E1809300010E945300CFBF1F
S11300D0CF9108951F920F920FB60F9211242F9370
S11300E03F934F935F936F937F938F939F93AF93BC
S11300F0BF93EF93FF938091C600833121F481E095
S11301008093020122C0813119F4109202011DC0B2
S1130110E0910401F0E0EB5FFE4F808380910401E5
S113012090E001968F71907880930401809103018F
S11301308F5F8093030180910301863130F08091B9
S11301400001813111F40E945F00FF91EF91BF9192
S1130150AF919F918F917F916F915F914F913F915B
S11301602F910F900FBE0F901F901895EAE7F0E0C3
S11301708081806880838081876080830895DB012B
S1130180ECE7F0E09081907F90839081982B9083AE
S1130190883021F48081806C808308C0ECE7F0E033
S11301A080818F7780838081806480838FE19EE467
S11301B00197F1F700C00000EAE7F0E08081806475
S11301C08083808186FDFDCF11961C921E928091C2
S11301D0780090E011969C938E9320917900922B55
S11301E08D939C930895CF93DF9300D0CDB7DEB762
S11301F01A8219820E94B60016BC8AEF87BD8DE769
S113020088BD84B5806384BD559A84B5836084BDFC
S113021085B58B6085BD7894BE016F5F7F4F82E0AA
S11302200E94BF0089819A819695879596958795B6
S11302309A83898388BD8FE39CE90197F1F700C015
S10B02400000EACFF894FFCF9F
S105024811009F
S9030000FC
