S00C000055342D312E7372656331
S11300000C9434000C9449000C9449000C9449005D
S11300100C9449000C9449000C9449000C94490038
S11300200C9449000C9449000C9449000C94490028
S11300300C9449000C9449000C9449000C94490018
S11300400C9449000C9449000C9449000C94490008
S11300500C9449000C9449000C9449000C944900F8
S11300600C9449000C94490011241FBECFEFD8E032
S1130070DEBFCDBF11E0A0E0B1E0E4E8F1E002C0F2
S113008005900D92A631B107D9F70E9466000C9431
S1130090C0000C9400001092C50087E68093C40051
S11300A0E1ECF0E08081886180830895E0ECF0E089
S11300B0908195FFFDCF8093C6000895E0ECF0E0B9
S11300C080818823ECF78091C6000895CF93DF9355
S11300D0CDB7DEB76F970FB6F894DEBF0FBECDBFB6
S11300E085E1E0E0F1E0DE011B9601900D928A9536
S11300F0E1F70E944B008B85882351F08E01045F49
S11301001F4F0E945600F80181918F018111F9CF90
S1130110E12CF12CC12CD12C0E945E00E1E0F0E036
S1130120EC0FFD1FEE0DFF1D80838D3031F00E941A
S11301305600FFEFEF1AFF0AEFCF8DE00E94560042
S113014088E40E94560089E60E94560080E20E94DC
S113015056001E141F0474F48E010F5F1F4FE00E2F
S1130160F11EF80181918F0180520E9456000E15F4
S11301701F05B9F78DE00E945600EC2CFD2CCCCF66
S1070180F894FFCF1D
S1130184486965722041546D6567612E2057657214
S10901942064613F00003D
S9030000FC
