:100000000C9434000C9449000C9449000C94490061
:100010000C9449000C9449000C9449000C9449003C
:100020000C9449000C9449000C9449000C9449002C
:100030000C9449000C9449000C9449000C9449001C
:100040000C9449000C9449000C9449000C9449000C
:100050000C9449000C9449000C9449000C944900FC
:100060000C9449000C94490011241FBECFEFD8E036
:10007000DEBFCDBF11E0A0E0B1E0E8EBF1E002C0EF
:1000800005900D92A230B107D9F70E9469000C9437
:10009000DA000C940000FC0189B182958695869562
:1000A000837090819C7F908380FD06C02091000129
:1000B00020FF02C091609083982F927039F4909144
:1000C000000191FF03C090819260908380930001B2
:1000D0000895CF93DF931F92CDB7DEB78AB18760C3
:1000E0008AB98BB1887F8BB98BB1886F8BB9198234
:1000F0000F2EF7E09F2EF02DFF24F3940F2EFAE041
:10010000DF2EF02DE12CBB24B3940F2EF7E0CF2E81
:10011000F02DA12C01C0FB2C0D2D1E2DCE01019622
:100120000E944B00FF20B1F0898180FF33C089B16C
:1001300090E080959095959587959595879595955F
:100140008795982E9BB180958770987F892B8BB966
:10015000FA2CE2CF898181FF0EC0DDCF992011F00A
:100160009A9401C09C2C8BB1992D90959770887FA3
:10017000892B8BB9D1CF2FEF81EE94E021508040B5
:100180009040E1F700C00000015011090115110570
:1001900029F6C2CF2FEF81EE94E0215080409040AD
:1001A000E1F700C00000015011090115110509F027
:0801B000B5CFD4CFF894FFCFC6
:0201B800020043
:00000001FF
