:100000000C94E4000C9401010C9401010C94010186
:100010000C9401010C9401010C9401010C94010158
:100020000C9401010C9401010C9401010C94010148
:100030000C9401010C9458010C9401010C940101E1
:100040000C9401010C9401010C9450020C940101D8
:100050000C9401010C9401010C9401010C94010118
:100060000C9401010C94010107634236B79BD8A799
:100070001A39685618AEBAAB558C1D3CB7CC5763CD
:10008000BD6DEDFD753EF6177231BF000000803F7B
:1000900008000000BE922449123EABAAAA2ABECD97
:1000A000CCCC4C3E00000080BEABAAAAAA3E000009
:1000B0000000BF000000803F000000000008417801
:1000C000D3BB4387D1133D190E3CC3BD4282AD2B38
:1000D0003E68EC8276BED98FE1A93E4C80EFFFBE30
:1000E00001C4FF7F3F000000000007BB01A901928F
:1000F000018201730157013F01496E7075742074CC
:10010000696D6520696E206D733A200050726573C9
:10011000732052455455524E20746F20676F2062F1
:1001200061636B20746F204D61696E204D656E7543
:1001300000496E7075742028312D34293A2000341E
:10014000202D205072696E74205374617274696E30
:10015000672054696D650033202D20436F6E6669FA
:1001600067757265205374617274696E6720546993
:100170006D650032202D2053746F702054696D65B9
:10018000720031202D2053746172742054696D65A2
:10019000720043686F6F736520616E2061637469DC
:1001A0006F6E2028312D3429002D2D2D2D2D2D2D34
:1001B0002D2D2D2D2D2D2D2D2D2D0046616E63798C
:1001C000204D656E753A000011241FBECFEFD8E0B8
:1001D000DEBFCDBF11E0A0E0B1E0E0E0F8E102C099
:1001E00005900D92AA32B107D9F721E0AAE2B1E059
:1001F00001C01D92AA3AB207E1F70E942D050C94A6
:10020000FE0B0C940000E0914A01F0E0E45BFE4F2D
:1002100080819091490191509093490120914A0128
:1002200030E02F5F3F4F2F71332720934A01909189
:1002300049019B3020F490910001933109F0089519
:100240002FB7F89491E19093000104C09091480178
:10025000911104C09091C00095FFF8CF91E1909367
:10026000C6002FBF08952FB7F8944091A801509170
:10027000A901842B952B9093A9018093A8012FBFEE
:1002800008954FB7F8942091A8013091A901809565
:100290009095822393239093A9018093A8014FBF47
:1002A00008952091A8013091A901822393230895F4
:1002B0001F920F920FB60F921124CF92DF92EF92FE
:1002C000FF920F931F932F933F934F935F936F93DF
:1002D0007F938F939F93AF93BF93EF93FF93CF93AE
:1002E000DF93CDB7DEB72A97DEBFCDBF87E39FEFA1
:1002F0009093850080938400FE0131968AE0DF01AF
:100300001D928A95E9F78F01DF0180E090E041E0DE
:1003100050E0FC01EE0FFF1FE80FF91FEE0FFF1F6B
:10032000EE0FFF1FE459FE4F20813181232BB1F0E6
:10033000C084D184E284F38425E6C216D104E104AA
:10034000F10408F04FC0C480D580E680F780C086F5
:10035000D186E286F38611965C934E9301961296AF
:1003600085309105B1F67894E12CF12CD8018D916E
:100370009D918D01892B31F5BFEFEB1AFB0AE5E06A
:10038000EE16F10499F72A960FB6F894DEBF0FBE69
:10039000CDBFDF91CF91FF91EF91BF91AF919F9131
:1003A0008F917F916F915F914F913F912F911F910D
:1003B0000F91FF90EF90DF90CF900F900FBE0F90B6
:1003C0001F901895F701EE0FFF1FEE0DFF1DEE0FAA
:1003D000FF1FEE0FFF1FE459FE4F0280F381E02D57
:1003E0000995CACFC084D184E284F38424E6C21A7A
:1003F000D108E108F108C086D186E286F386AECF47
:10040000E1E8F0E080818260808387E39FEF909352
:10041000850080938400EFE6F0E080818160808336
:10042000089590E0FC01EE0FFF1FE80FF91FEE0F9B
:10043000FF1FEE0FFF1FE459FE4F80819181892B32
:1004400051F444835583668377834087518762875D
:10045000738733832283089590E0FC01EE0FFF1F22
:10046000E80FF91FEE0FFF1FEE0FFF1FE459FE4FBD
:1004700080819181892B21F481E090E091838083B8
:10048000089590E0FC01EE0FFF1FE80FF91FEE0F3B
:10049000FF1FEE0FFF1FE459FE4F118210820895D7
:1004A0001F920F920FB60F9211248F939F93EF9389
:1004B000FF938091C6008331C9F18131D9F1E09178
:1004C0004B01F0E0E45BFE4F808380914B0190E0B4
:1004D00001968F71992780934B01809149018F5F1D
:1004E0008093490180914901863120F0809100017B
:1004F000813149F0FF91EF919F918F910F900FBE45
:100500000F901F9018959FB7F89483E18093000196
:1005100004C080914801811104C08091C00085FF12
:10052000F8CF83E18093C6009FBFE4CF81E0809342
:100530004801E0CF10924801DDCF8091C00085FDD9
:1005400004C0809148018823C1F38BE18093C600E9
:1005500004C080914801811104C08091C00085FFD2
:10056000F8CF8BE58093C60004C0809148018111CB
:1005700004C08091C00085FFF8CF82E38093C6005D
:1005800004C080914801811104C08091C00085FFA2
:10059000F8CF8AE48093C60004C08091480181119D
:1005A00004C08091C00085FFF8CF8BE18093C60026
:1005B00004C080914801811104C08091C00085FF72
:1005C000F8CF8BE58093C60004C08091480181116B
:1005D00004C08091C00085FFF8CF88E48093C600F6
:1005E00008951092C50087E68093C400E1ECF0E026
:1005F0008081886980830C949D022091490181E06B
:1006000090E0222311F080E090E008959091C000E6
:1006100095FD04C0909148019923C1F38093C600D1
:1006200008958091490181110C94030180E008959F
:100630009FB7F89483E18093000104C08091480142
:10064000811104C08091C00085FFF8CF83E18093C1
:10065000C6009FBF08959FB7F89481E18093000181
:1006600004C080914801811104C08091C00085FFC1
:10067000F8CF81E18093C6009FBF0895CF93EAEE43
:10068000F0E07491772309F43DC04BEE50E060E058
:10069000BDE0AAE0FA0125913491F901C491CC237F
:1006A000D9F090E004C080914801811104C080918C
:1006B000C00085FFF8CFC093C6009F5FF901E90F26
:1006C000F11DC491C111F3CF8091C00085FD08C018
:1006D00080914801811104C08091C00085FFF8CF4E
:1006E000B093C60004C080914801811104C080917C
:1006F000C00085FFF8CFA093C6006F5F4E5F5F4FCD
:100700007613C8CFCF910895CF93DF93CDB7DEB7DF
:100710002A970FB6F894DEBF0FBECDBF01E311E0FC
:10072000F80124912223A1F090E004C080914801B7
:10073000811104C08091C00085FFF8CF2093C600CE
:100740009F5FE92FF0E0EF5CFE4F24912111F2CF83
:10075000809149018823E1F30E940301F82E882348
:10076000B9F30E949D02F80104910023E1F090E0AA
:1007700004C080914801811104C08091C00085FFB0
:10078000F8CF0093C6009F5FE92FF0E0EF5CFE4FCB
:1007900004910111F2CF8091C00085FD08C08091C5
:1007A0004801811104C08091C00085FFF8CFF0920C
:1007B000C60004C080914801811104C08091C0002E
:1007C00085FFF8CF8DE08093C60004C0809148017A
:1007D000811104C08091C00085FFF8CF8AE080932A
:1007E000C6008FEC8F0D843038F480ED8F0D833090
:1007F00009F455C0843009F0FFCF809170019091C9
:100800007101A0917201B0917301BF93AF939F9357
:100810008F9386E191E09F938F931F928EE18F9348
:100820008AE291E09F938F930E94060980912A01AA
:100830000FB6F894DEBF0FBECDBF8823E1F090E085
:1008400004C020914801211104C02091C00025FF5F
:10085000F8CF8093C6009F5FE92FF0E0E65DFE4F82
:1008600080818111F2CF8091C00085FD08C0809108
:100870004801811104C08091C00085FFF8CF8DE050
:100880008093C60004C080914801811104C080910A
:10089000C00085FFF8CF8AE08093C600ADCFE9EFB6
:1008A000F0E0E491EE23A1F080E004C090914801D3
:1008B000911104C09091C00095FFF8CFE093C6005D
:1008C0008F5FE82FF0E0E750FF4FE491E111F2CFA6
:1008D0009E012F5F3F4F69018AE0F90111928A95CD
:1008E000E9F710E0809149018823E1F30E940301B8
:1008F0008823C1F39091C00095FD08C090914801F4
:10090000911104C09091C00095FFF8CF8093C6006C
:1009100021E0210FF601E10FF11D90ED980F90837A
:100920008D3011F0122FDECF1092700110927101F4
:1009300010927201109273017E01FBE0EF0EF11C28
:1009400000E010E060E070E080E89FE30FC0B801D5
:10095000012E000C880B990B0E94A9059B01AC018C
:1009600060E070E080E291E40E940D06409070012A
:10097000509071016090720170907301F701829044
:100980007F01912CA12CB12C0E947805A501940126
:100990000E944E05460E571E681E791E4092700139
:1009A0005092710160927201709273010F5F1F4F3C
:1009B000EC14FD0461F68091700190917101A09199
:1009C0007201B0917301BF93AF939F938F9381E0B6
:1009D00091E09F938F931F928EE18F938AE291E033
:1009E0009F938F930E94060980912A010FB6F89475
:1009F000DEBF0FBECDBF8823E1F090E004C02091A0
:100A00004801211104C02091C00025FFF8CF809338
:100A1000C6009F5FE92FF0E0E65DFE4F8081811107
:100A2000F2CF8091C00085FD08C0809148018111FE
:100A300004C08091C00085FFF8CF8DE08093C60090
:100A400004C080914801811104C08091C00085FFDD
:100A5000F8CF8AE08093C600CFCEE1E8F0E0808155
:100A60008260808387E39FEF90938500809384006A
:100A7000EFE6F0E08081816080831092C50087E618
:100A80008093C400E1ECF0E08081886980830E945B
:100A90009D0278940E943E030E948403DB018F93A1
:100AA0009F930E945E05BF91AF91A29F800D911D03
:100AB000A39F900DB29F900D112408950E94690587
:100AC000A59F900DB49F900DA49F800D911D1124A2
:100AD0000895A29FB001B39FC001A39F700D811D17
:100AE0001124911DB29F700D811D1124911D089537
:100AF0000E94EC0588F09F5798F0B92F9927B751BD
:100B0000B0F0E1F0660F771F881F991F1AF0BA95B1
:100B1000C9F714C0B13091F00E940606B1E0089503
:100B20000C940606672F782F8827B85F39F0B93FF5
:100B3000CCF3869577956795B395D9F73EF4909564
:100B40008095709561957F4F8F4F9F4F0895E894E2
:100B500009C097FB3EF490958095709561957F4F05
:100B60008F4F9F4F9923A9F0F92F96E9BB279395B3
:100B7000F695879577956795B795F111F8CFFAF4C3
:100B8000BB0F11F460FF1BC06F5F7F4F8F4F9F4FF4
:100B900016C0882311F096E911C0772321F09EE852
:100BA000872F762F05C0662371F096E8862F70E0B8
:100BB00060E02AF09A95660F771F881FDAF7880F92
:100BC0009695879597F9089557FD9058440F551FAE
:100BD00059F05F3F71F04795880F97FB991F61F0BF
:100BE0009F3F79F087950895121613061406551F36
:100BF000F2CF4695F1DF08C0161617061806991FA2
:100C0000F1CF86957105610508940895E894BB2796
:100C100066277727CB0197F90895FA01EE0FFF1F9A
:100C2000309621053105A1F16115710561F4803817
:100C3000BFE39B0749F168949038810561F08038E3
:100C4000BFEF9B0741F099234AF5FF3FE1053105CE
:100C5000210519F1E8940894E795D901AA2329F40C
:100C6000AB2FBE2FF85FD0F310C0FF5F70F4A695D6
:100C7000E0F7F73950F019F0FF3A38F49F779F9377
:100C80000DD00F9007FC9058089546F00C949D06E7
:100C900060E070E080E89FE308954FE79F775F93FF
:100CA0004F933F932F930E9411072F913F914F91A4
:100CB0005F910E948D070C94650629F416F00C9440
:100CC00097060C9406060C949D060E94EC05A8F36A
:100CD0009638A0F707F80F92E8942BE33AEA48EB2E
:100CE0005FE70E94A3070F920F920F924DB75EB776
:100CF0000F920E945907E8E6F0E00E94A0064F918B
:100D00005F91EF91FF91E595EE1FFF1F49F0FE57B0
:100D1000E0684427EE0F441FFA95E1F74195550B23
:100D20000E94D3060F9007FE0C94C706089597F90A
:100D30009F6780E870E060E008959FEF80EC089581
:100D4000DF93CF931F930F93FF92EF92DF927B017C
:100D50008C01689406C0DA2EEF010E94A007FE0104
:100D6000E894A5912591359145915591A6F3EF0110
:100D70000E941208FE019701A801DA9469F7DF903A
:100D8000EF90FF900F911F91CF91DF9108959B01FC
:100D9000AC0160E070E080E89FE30C9467080C947D
:100DA00097060C94D9080E94EC05D8F39923C9F34F
:100DB000940F511DA3F39150504094F059F08823A3
:100DC00032F0660F771F881F91505040C1F79E3F49
:100DD00051052CF7880F911D9695879597F90895E1
:100DE0005F3FACF0983E9CF0BB2786957795679562
:100DF000B79508F4B1609395C1F7BB0F58F711F49C
:100E000060FFE8CF6F5F7F4F8F4F9F4FE3CF0C9412
:100E1000070616F00C94D9080C949D0668940C945F
:100E200097060E94EC05A8F39923C1F3AEF3DF9374
:100E3000CF931F930F93FF92C92FDD2788232AF0AA
:100E40002197660F771F881FDAF720E030E040E82F
:100E50005FEB9FE3883920F0803E38F021968F7752
:100E60000E94FB07E0E9F0E004C00E94FB07EDEB05
:100E7000F0E00E94A0068B01BE01EC01FB2E6F5733
:100E800071097595771F880B990B0E94A90528E1B8
:100E900032E741E35FE30E94A007AF2D9801AE0166
:100EA000FF900F911F91CF91DF910E9412080C9437
:100EB000F508FA01DC01AA0FBB1F9B01AC01BF576B
:100EC00028F4222733274427507820C0B75190F4C4
:100ED000AB2F0024469537952795011CA395D2F397
:100EE000002071F0220F331F441FB395DAF30ED0A8
:100EF0000C94FA0761307105A0E88A07B94630F40E
:100F00009B01AC016627772788279078309621F0DF
:100F1000208331834283538308950E94A0070C9459
:100F2000F5080E94E70838F00E94EE0820F09523AB
:100F300011F00C9497060C949D0611240C9407064E
:100F40000E94E40570F3959FC1F3950F50E0551F83
:100F5000629FF001729FBB27F00DB11D639FAA270E
:100F6000F00DB11DAA1F649F6627B00DA11D661F5D
:100F7000829F2227B00DA11D621F739FB00DA11D7E
:100F8000621F839FA00D611D221F749F3327A00D38
:100F9000611D231F849F600D211D822F762F6A2FD4
:100FA00011249F5750409AF0F1F088234AF0EE0F39
:100FB000FF1FBB1F661F771F881F91505040A9F766
:100FC0009E3F510580F00C9497060C9407065F3FF6
:100FD000E4F3983ED4F3869577956795B795F795A2
:100FE000E7959F5FC1F7FE2B880F911D969587951A
:100FF00097F908955058BB27AA270E9412080C940D
:10100000F5080E94E70838F00E94EE0820F039F455
:101010009F3F19F426F40C949D060EF4E095E7FB2F
:101020000C949706E92F0E94E40558F3BA1762075B
:1010300073078407950720F079F4A6F50C9406064B
:101040000EF4E0950B2EBA2FA02D0B01B9019001E3
:101050000C01CA01A0011124FF27591B99F0593F27
:1010600050F4503E68F11A16F040A22F232F342F6F
:101070004427585FF3CF469537952795A795F040BD
:101080005395C9F77EF41F16BA0B620B730B840BD2
:10109000BAF09150A1F0FF0FBB1F661F771F881F8A
:1010A000C2F70EC0BA0F621F731F841F48F48795E2
:1010B00077956795B795F7959E3F08F0B0CF9395D4
:1010C000880F08F09927EE0F9795879508950E944D
:1010D0007B080C94F5080E94EE0858F00E94E7087F
:1010E00040F029F45F3F29F00C94970651110C94BD
:1010F00007060C949D060E94E40568F39923B1F35A
:10110000552391F3951B550BBB27AA27621773072D
:10111000840738F09F5F5F4F220F331F441FAA1FC1
:10112000A9F335D00E2E3AF0E0E832D0915050407D
:10113000E695001CCAF72BD0FE2F29D0660F771F2B
:10114000881FBB1F261737074807AB07B0E809F011
:10115000BB0B802DBF01FF2793585F4F3AF09E3F96
:10116000510578F00C9497060C9407065F3FE4F362
:10117000983ED4F3869577956795B795F7959F5FD9
:10118000C9F7880F911D9695879597F90895E1E025
:10119000660F771F881FBB1F621773078407BA0784
:1011A00020F0621B730B840BBA0BEE1F88F7E095DF
:1011B00008959F3F31F0915020F48795779567957A
:1011C000B795880F911D9695879597F908950024F6
:1011D0000A941616170618060906089500240A949C
:1011E00012161306140605060895092E0394000C22
:1011F00011F4882352F0BB0F40F4BF2B11F460FFB1
:1012000004C06F5F7F4F8F4F9F4F0895AEE0B0E0F7
:10121000ECE0F9E00C94D50B0D891E898F89988D2F
:1012200026E02C831A83098397FF02C080E090E8B0
:1012300001979E838D83AE01455E5F4F698D7A8DE8
:10124000CE0101960E9436094D815E8157FD0AC08C
:101250002F813885421753070CF49A01F801E20FE9
:10126000F31F10822E96E4E00C94F10BABE0B0E09B
:10127000ECE3F9E00C94C70B6C017B018A01FC01E3
:1012800017821682838181FFCCC1CE0101963C0179
:10129000F6019381F70193FD859193FF81917F0181
:1012A000882309F4BAC1853239F493FD859193FFFF
:1012B00081917F01853229F4B60190E00E942D0BC7
:1012C000E7CF912C212C312CFFE1F315D8F08B3294
:1012D00079F038F4803279F08332A1F4232D206143
:1012E0001DC08D3261F0803369F4232D216016C05A
:1012F000832D8260382EE32DE4603E2E2AC0F32D2C
:10130000F8601DC037FC2DC020ED280F2A3040F0BA
:101310008E32B9F436FC81C1232D2064322E19C0DF
:1013200036FE06C08AE0989E200D1124922E11C030
:10133000EAE02E9E200D1124222EF32DF0623F2E86
:1013400008C08C3621F4832D8068382E02C0883680
:1013500041F4F70193FD859193FF81917F01811104
:10136000B3CF982F9F7D9554933028F40C5F1F4F77
:101370009FE399830DC0833631F0833771F0833555
:1013800009F059C021C0F801808189830E5F1F4F89
:1013900088248394912C530113C02801F2E04F0E4E
:1013A000511CF801A080B18036FE03C0692D70E0A9
:1013B00002C06FEF7FEFC5010E94220B4C0182013A
:1013C000F32DFF773F2E16C0280122E0420E511C5C
:1013D000F801A080B18036FE03C0692D70E002C024
:1013E0006FEF7FEFC5010E94170B4C01F32DF068E2
:1013F0003F2E820133FC1BC0822D90E08816990697
:10140000B0F4B60180E290E00E942D0B2A94F4CF54
:10141000F50137FC859137FE81915F01B60190E0BF
:101420000E942D0B21102A9421E0821A9108811428
:10143000910471F7E8C0843611F0893641F5F8015E
:1014400037FE07C060817181828193810C5F1F4FDD
:1014500008C060817181072E000C880B990B0E5F0C
:101460001F4FF32DFF763F2E97FF09C09095809573
:10147000709561957F4F8F4F9F4FF0683F2E2AE008
:1014800030E0A3010E94690B882E861845C085377D
:1014900031F4232D2F7EB22E2AE030E025C0932D8B
:1014A000997FB92E8F36C1F018F4883579F0B5C020
:1014B000803719F0883721F0B0C0E92FE061BE2EE7
:1014C000B4FE0DC0FB2DF460BF2E09C034FE0AC06F
:1014D000292F2660B22E06C028E030E005C020E1AA
:1014E00030E002C020E132E0F801B7FE07C06081C1
:1014F0007181828193810C5F1F4F06C06081718171
:1015000080E090E00E5F1F4FA3010E94690B882EC0
:101510008618FB2DFF773F2E36FE0DC0232D2E7F24
:10152000A22E891458F434FE0BC032FC09C0832D5E
:101530008E7EA82E05C0B82CA32C03C0B82C01C0E9
:10154000B92CA4FE0FC0FE01E80DF11D808180338F
:1015500021F49A2D997EA92E09C0A2FE06C0B3944B
:10156000B39404C08A2D867809F0B394A3FC11C00B
:10157000A0FE06C0B21488F4280C922C9B180EC052
:10158000B21460F4B60180E290E00E942D0BB39497
:10159000F7CFB21418F42B1802C0982C212CA4FEFB
:1015A00010C0B60180E390E00E942D0BA2FE17C090
:1015B000A1FC03C088E790E002C088E590E0B60196
:1015C0000CC08A2D867859F0A1FE02C08BE201C0C2
:1015D00080E2A7FC8DE2B60190E00E942D0B8914F9
:1015E00038F4B60180E390E00E942D0B9A94F7CF77
:1015F0008A94F301E80DF11D8081B60190E00E940C
:101600002D0B8110F5CF222009F442CEB60180E2E5
:1016100090E00E942D0B2A94F6CFF60186819781E7
:1016200002C08FEF9FEF2B96E2E10C94E30BFC01DD
:101630000590615070400110D8F7809590958E0FFD
:101640009F1F0895FC016150704001900110D8F770
:10165000809590958E0F9F1F08950F931F93CF93A2
:10166000DF93FB01238121FD03C08FEF9FEF2CC08F
:1016700022FF16C0468157812481358142175307C6
:1016800044F4A081B1819D012F5F3F4F31832083BE
:101690008C93268137812F5F3F4F3783268314C079
:1016A0008B01EC01FB010084F185E02D0995892B6C
:1016B000E1F6D80116968D919C9117970196179691
:1016C0009C938E931697CE01DF91CF911F910F912E
:1016D0000895FA01AA27283051F1203181F1E894C8
:1016E0006F936E7F6E5F7F4F8F4F9F4FAF4FB1E015
:1016F0003ED0B4E03CD0670F781F891F9A1FA11D10
:10170000680F791F8A1F911DA11D6A0F711D811D10
:10171000911DA11D20D009F468943F912AE0269FD5
:1017200011243019305D3193DEF6CF010895462F34
:101730004770405D4193B3E00FD0C9F7F6CF462F15
:101740004F70405D4A3318F0495D31FD405241937E
:1017500002D0A9F7EACFB4E0A6959795879577953B
:101760006795BA95C9F700976105710508959B01C2
:10177000AC010A2E06945795479537952795BA954B
:10178000C9F7620F731F841F951FA01D08952F9224
:101790003F924F925F926F927F928F929F92AF9201
:1017A000BF92CF92DF92EF92FF920F931F93CF934E
:1017B000DF93CDB7DEB7CA1BDB0B0FB6F894DEBFE5
:1017C0000FBECDBF09942A88398848885F846E840B
:1017D0007D848C849B84AA84B984C884DF80EE8055
:1017E000FD800C811B81AA81B981CE0FD11D0FB65E
:1017F000F894DEBF0FBECDBFED010895F894FFCF82
:101800001154696D6572207761732073657420745B
:101810006F20256C750054696D65722069732073A3
:0A182000657420746F20256C7500BC
:00000001FF
