:100000000C9434000C9453000C9451000C94510047
:100010000C9478000C94A2000C9451000C945100A4
:100020000C9451000C9451000C9451000C9451000C
:100030000C9451000C9451000C9451000C945100FC
:100040000C9451000C9451000C9451000C945100EC
:100050000C9451000C9451000C9451000C945100DC
:100060000C9451000C94510011241FBECFEFD8E026
:10007000DEBFCDBF11E0A0E0B1E0EEE1F2E002C0F2
:1000800005900D92A230B107D9F721E0A2E0B1E0CE
:1000900001C01D92A330B207E1F70E94C9000C9481
:1000A0000D010C9400001F920F920FB60F921124B5
:1000B0008F9381E0809300018F910F900FBE0F907E
:1000C0001F90189589B190E08095909595958795AA
:1000D000959587959595879580930201089595B19B
:1000E0008091020180958770987F892B85B908954A
:1000F0001F920F920FB60F9211242F933F934F939D
:100100005F936F937F938F939F93AF93BF93EF937F
:10011000FF93309906C0109200010E9462000E9475
:100120006F00FF91EF91BF91AF919F918F917F9160
:100130006F915F914F913F912F910F900FBE0F9054
:100140001F9018951F920F920FB60F9211242F93A4
:100150003F934F935F936F937F938F939F93AF934F
:10016000BF93EF93FF9387E0809302010E946F009B
:10017000FF91EF91BF91AF919F918F917F916F917F
:100180005F914F913F912F910F900FBE0F901F9055
:100190001895509A589A84B1876084B9519A85B15C
:1001A000887F85B98BB18C638BB9409AE9E6F0E022
:1001B000808182608083E89AE8E6F0E08081866052
:1001C0008083ECE6F0E0808181608083EDE6F0E002
:1001D000808182608083789488E080930201C2E00D
:1001E00080910001882379F080910201882341F0F9
:1001F000809102018150809302010E946F0003C030
:100200008BB18C278BB92FEF83ED90E32150804089
:0E0210009040E1F700C00000E3CFF894FFCF6C
:02021E000100DD
:00000001FF
