:100000000C9434000C9451000C9451000C94510049
:100010000C9451000C94DE000C9451000C9451008F
:100020000C9451000C9451000C9451000C9451000C
:100030000C9451000C9451000C9451000C945100FC
:100040000C9471000C9451000C9451000C945100CC
:100050000C9451000C9451000C9451000C945100DC
:100060000C9451000C94510011241FBECFEFD8E026
:10007000DEBFCDBF11E0A0E0B1E0E6E3F3E002C0F7
:1000800005900D92A830B107D9F721E0A8E0B1E0C2
:1000900001C01D92AD30B207E1F70E943C010C9403
:1000A00099010C9400004FB7F89420910A01309107
:1000B0000B01822B932B90930B0180930A014FBF6E
:1000C00008954FB7F89420910A0130910B01809563
:1000D00090958223932390930B0180930A014FBF45
:1000E00008951F920F920FB60F9211242F933F93F2
:1000F0004F935F936F937F938F939F93AF93BF9330
:10010000CF93DF93EF93FF93C0910001D091010152
:100110002197D0930101C09300019E013695279548
:10012000ABE7B4E10E948A019695879542E3489F28
:100130009001499F300D1124C217D30731F48091EB
:100140000401909105010E945300CD2B61F4809130
:100150000201909103010E94530088EE93E0909376
:1001600001018093000186E086BDFF91EF91DF9150
:10017000CF91BF91AF919F918F917F916F915F913F
:100180004F913F912F910F900FBE0F901F90189598
:1001900089B190E0809590959595879595958795EF
:1001A0009595879580930C01089595B180910C01E8
:1001B00080958770987F892B85B908951F920F923B
:1001C0000FB60F9211242F933F934F935F936F932A
:1001D0007F938F939F93AF93BF93EF93FF9387E0AA
:1001E00080930C010E94D500FF91EF91BF91AF91D8
:1001F0009F918F917F916F915F914F913F912F913F
:100200000F900FBE0F901F901895809106018823C4
:1002100081F080910C01882341F080910C01815084
:1002200080930C010E94D50008959BB182E089273C
:100230008BB90895CF93C6B1C095C1708091090163
:10024000811108C0CC2331F0109206010E94C80031
:100250000E94D500C093090189B180958470909166
:100260000801911105C0882319F091E090930601CF
:1002700080930801CF910895509A589A84B187606D
:1002800084B9519A85B1887F85B98BB18C638BB95C
:10029000409AE8E6F0E0808184608083EDE6F0E05B
:1002A00080818260808385B5836085BD86E086BD60
:1002B000EEE6F0E0808181608083789488E080932E
:1002C0000C0120910A0130910B0180910401909161
:1002D000050182239323892B41F00E941A0180910A
:1002E0000401909105010E94610020910A01309162
:1002F0000B01809102019091030182239323892BAA
:1003000001F30E94050180910201909103010E9476
:100310006100D7CFA29FB001B39FC001A39F700D12
:10032000811D1124911DB29F700D811D1124911DFD
:060330000895F894FFCFD0
:08033600E803020001000100D0
:00000001FF
