:100000000C9434000C943E000C943E000C943E0082
:100010000C943E000C943E000C943E000C943E0068
:100020000C943E000C943E000C943E000C943E0058
:100030000C943E000C943E000C943E000C943E0048
:100040000C943E000C943E000C943E000C943E0038
:100050000C943E000C943E000C943E000C943E0028
:100060000C943E000C943E0011241FBECFEFD8E04C
:10007000DEBFCDBF0E9440000C9463000C940000D2
:100080008AB187608AB98BB1887F8BB98BB1886F51
:100090008BB987E037E001C0832F2FEF41EE94E06A
:1000A000215040409040E1F700C0000099B12BB1D1
:1000B0009695969596959770287F922B9BB9882355
:0A00C00059F38150EACFF894FFCF06
:00000001FF
