S00C000055332D322E7372656331
S11300000C9434000C9451000C9451000C94510045
S11300100C9451000C9498010C9451000C945100D0
S11300200C9451000C9451000C9451000C94510008
S11300300C9451000C9453000C9451000C945100F6
S11300400C9451000C9451000C9451000C945100E8
S11300500C9451000C9451000C9451000C945100D8
S11300600C9451000C94510011241FBECFEFD8E022
S1130070DEBFCDBF11E0A0E0B1E0E0EFF3E002C0ED
S113008005900D92A230B107D9F721E0A2E0B1E0CA
S113009001C01D92AC33B207E1F70E944C010C94ED
S11300A0F6010C9400001F920F920FB60F921124C8
S11300B0DF92EF92FF920F931F932F933F934F93EF
S11300C05F936F937F938F939F93AF93BF93EF93BC
S11300D0FF93CF93DF93CDB7DEB72597DEBFCDBFB8
S11300E087E39FEF9093850080938400FE0131960F
S11300F085E0DF011D928A95E9F720E030E06BE0AE
S113010071E0629FF001639FF00D1124EC5FFE4FDC
S113011080818823D1F1629FF001639FF00D112447
S1130120EC5FFE4F87819085A185B2858536910568
S1130130A105B105B8F4629FF001639FF00D11248D
S1130140EC5FFE4F83819481A581B681878390877C
S1130150A187B287E1E0F0E0EC0FFD1FE20FF31F8F
S1130160708313C0629FF001639FF00D1124EC5F54
S1130170FE4F87819085A185B28584569109A10996
S1130180B10987839087A187B2872F5F3F4F2530BE
S1130190310509F0B6CF7894FE0131967F0100E075
S11301A010E00F2EFBE0DF2EF02DD7018D917D01A5
S11301B0882359F0D09EF001D19EF00D1124EC5FFC
S11301C0FE4F0180F281E02D09950F5F1F4F05302E
S11301D0110559F70F900F900F900F900F90DF912A
S11301E0CF91FF91EF91BF91AF919F918F917F91AB
S11301F06F915F914F913F912F911F910F91FF90BC
S1130200EF90DF900F900FBE0F901F901895E1E8CC
S1130210F0E080818260808387E39FEF9093850084
S113022080938400EFE6F0E080818160808308950C
S1130230A82FB0E09BE0899FF0011124EC5FFE4FF2
S11302408081811112C08BE08A9FF0018B9FF00D99
S11302501124EC5FFE4F4383548365837683478385
S1130260508761877287328321830895282F30E075
S11302709BE0899FF0011124EC5FFE4F8081811186
S11302800AC08BE0829FF001839FF00D1124EC5F84
S1130290FE4F81E080830895509A589A84B1876014
S11302A084B9519A85B1887F85B98BB18C638BB938
S11302B0409AE8E6F0E0808184608083EDE6F0E037
S11302C08081826080830E94070124ED31E040E553
S11302D053EC60E070E080E00E9418012FEB31E005
S11302E040E452E46FE070E081E00E9418017894E9
S11302F088E080933B0180E00E94360181E00E9407
S11303003601FFCF89B190E08095909595958795BA
S1130310959587959595879580933B01089595B11B
S113032080913B0180958770987F892B85B90895CA
S11303301F920F920FB60F9211242F933F934F9356
S11303405F936F937F938F939F93AF93BF93EF9339
S1130350FF9387E080933B010E948F01FF91EF910F
S1130360BF91AF919F918F917F916F915F914F91C9
S11303703F912F910F900FBE0F901F901895809171
S11303800001882381F080913B01882341F0809112
S11303903B01815080933B010E948F0108959BB1E2
S11303A082E089278BB90895CF93C6B1C095C170F7
S11303B080910301811108C0CC2331F01092000117
S11303C00E9482010E948F01C093030189B180952C
S11303D0847090910201911105C0882319F091E075
S11303E09093000180930201CF910895F894FFCF78
S10503F0010006
S9030000FC
