S00C000055312D312E7372656334
S11300000C9434000C943E000C943E000C943E007E
S11300100C943E000C943E000C943E000C943E0064
S11300200C943E000C943E000C943E000C943E0054
S11300300C943E000C943E000C943E000C943E0044
S11300400C943E000C943E000C943E000C943E0034
S11300500C943E000C943E000C943E000C943E0024
S11300600C943E000C943E0011241FBECFEFD8E048
S1130070DEBFCDBF0E9440000C945F000C940000D2
S11300808AB187608AB98BB1887F8BB987E037E002
S113009001C0832F2FEF43ED90E321504040904067
S11300A0E1F700C000009BB1987F9BB99BB1282F5A
S11300B02095922B9BB9882361F38150EBCFF89460
S10500C0FFCF6C
S9030000FC
