:100000000C9405010C9422010C9422010C94220101
:100010000C9422010C9422010C9422010C942201D4
:100020000C9422010C9422010C9422010C942201C4
:100030000C9422010C94D7010C9422010C942201FF
:100040000C9422010C9422010C94AA020C9422011B
:100050000C9422010C9422010C9422010C94220194
:100060000C9422010C94220107EC01DA01C301B3C4
:1000700001A401880170015468652054696D65729E
:100080002069732063757272656E746C7920727565
:100090006E6E696E672C20706C6561736520737479
:1000A0006F70207468652054696D657220746F20CC
:1000B000736574207374617274696E672076616C05
:1000C00075652100496E76616C696420496E7075B2
:1000D000742C20706C6561736520656E7465722088
:1000E00061206E756D626572206265747765656EFC
:1000F000203120616E642037004572726F722120BA
:10010000506C656173652063686F6F736520616310
:1001100074696F6E206265747765656E2031206149
:100120006E6420342E005374617274696E672056B9
:10013000616C75652028312D37293A200050726591
:1001400073732052455455524E20746F20676F20B0
:100150006261636B20746F204D61696E204D656E26
:100160007500496E7075742028312D34293A2000AD
:1001700034202D205072696E74205374617274693A
:100180006E672054696D650033202D20436F6E66C5
:100190006967757265205374617274696E67205463
:1001A000696D650032202D2053746F702054696D85
:1001B00065720031202D2053746172742054696D72
:1001C00065720043686F6F736520616E20616374B0
:1001D000696F6E2028312D3429002D2D2D2D2D2DC8
:1001E0002D2D2D2D2D2D2D2D2D2D2D0046616269AE
:1001F0002773202620466C6F27732046616E637933
:100200002054696D65723A00000011241FBECFEFC3
:10021000D8E0DEBFCDBF11E0A0E0B1E0E0E9F2E15F
:1002200002C005900D92AE31B107D9F721E0AEE1E1
:10023000B1E001C01D92A839B207E1F70E94AA03FC
:100240000C9446090C940000E0913E01F0E0E05C63
:10025000FE4F808190913D01915090933D012091FE
:100260003E0130E02F5F3F4F2F71332720933E0137
:1002700090913D019B3020F490910101933109F060
:1002800008952FB7F89491E19093010104C09091E3
:100290003C01911104C09091C00095FFF8CF91E10D
:1002A0009093C6002FBF08958091C00085FD04C0C3
:1002B00080913C018823C1F38DE08093C60004C087
:1002C00080913C01811104C08091C00085FFF8CF6E
:1002D0008AE08093C600E4ECF0E0E491EE23C9F0FC
:1002E00090E004C080913C01811104C08091C00065
:1002F00085FFF8CFE093C6009F5FE92FF0E0EC5355
:10030000FF4FE491E111F2CF04C080913C018111D3
:1003100004C08091C00085FFF8CF8DE08093C600B7
:1003200004C080913C01811104C08091C00085FF10
:10033000F8CF8AE08093C600E6E2F1E0E491EE2394
:10034000A1F090E004C080913C01811104C0809133
:10035000C00085FFF8CFE093C6009F5FE92FF0E073
:10036000EA5DFE4FE491E111F2CF80E008958091C3
:1003700000018823A9F080919701811112C080911A
:1003800000008093970125B190919701892F90E00B
:100390008095909587709927922F987F892B85B9A2
:1003A000089580919701815080939701ECCF1F921F
:1003B0000F920FB60F921124DF92EF92FF920F93DC
:1003C0001F932F933F934F935F936F937F938F93DD
:1003D0009F93AF93BF93EF93FF93CF93DF93CDB7EB
:1003E000DEB72597DEBFCDBF87E39FEF90938500F3
:1003F00080938400FE01319685E0DF011D928A958D
:10040000E9F77F01DF0180E090E03BE011E0389FF9
:10041000F001399FF00D1124E05AFE4F2081222374
:1004200099F0478150856185728545365105610592
:10043000710508F046C04381548165817681478308
:100440005087618772871C930196119685309105BC
:10045000F1F6789400E010E08BE0D82EF70181915E
:100460007F01811122C00F5F1F4F05301105B1F7C9
:100470000F900F900F900F900F90DF91CF91FF9101
:10048000EF91BF91AF919F918F917F916F915F910C
:100490004F913F912F911F910F91FF90EF90DF901F
:1004A0000F900FBE0F901F901895D09EF001D19E17
:1004B000F00D1124E05AFE4F0180F281E02D0995E4
:1004C000D2CF4781508561857285445651096109B3
:1004D00071094783508761877287B6CFE1E8F0E002
:1004E00080818260808387E39FEF90938500809373
:1004F0008400EFE6F0E08081816080830895EBE086
:100500008E9FC0011124FC01E05AFE4F80818111B1
:100510000AC043835483658376834783508761870A
:1005200072873283218308952BE0829FC0011124BA
:10053000FC01E05AFE4F8081811102C081E080837E
:1005400008952BE0829FC0011124FC01E05AFE4F68
:10055000108208951F920F920FB60F9211248F935D
:100560009F93EF93FF938091C6008331C9F181314E
:10057000D9F1E0913F01F0E0E05CFE4F8083809193
:100580003F0190E001968F71992780933F01809100
:100590003D018F5F80933D0180913D01863120F0C8
:1005A00080910101813149F0FF91EF919F918F91ED
:1005B0000F900FBE0F901F9018959FB7F89483E18E
:1005C0008093010104C080913C01811104C080919D
:1005D000C00085FFF8CF83E18093C6009FBFE4CFC2
:1005E00081E080933C01E0CF10923C01DDCF80910F
:1005F000C00085FD04C080913C018823C1F38BE1DC
:100600008093C60004C080913C01811104C0809198
:10061000C00085FFF8CF8BE58093C60004C08091B1
:100620003C01811104C08091C00085FFF8CF82E3B6
:100630008093C60004C080913C01811104C0809168
:10064000C00085FFF8CF8AE48093C60004C0809183
:100650003C01811104C08091C00085FFF8CF8BE17F
:100660008093C60004C080913C01811104C0809138
:10067000C00085FFF8CF8BE58093C60004C0809151
:100680003C01811104C08091C00085FFF8CF88E44F
:100690008093C60008951092C50087E68093C40039
:1006A000E1ECF0E08081886980830C94F7029091FE
:1006B0003D0181E0911180E008959091C00095FD89
:1006C00004C090913C019923C1F38093C600089522
:1006D00080913D0181110C94240180E008959FB721
:1006E000F89483E18093010104C080913C01811161
:1006F00004C08091C00085FFF8CF83E18093C600DD
:100700009FBF08959FB7F89481E18093010104C0D1
:1007100080913C01811104C08091C00085FFF8CF19
:1007200081E18093C6009FBF08958150873010F00B
:100730000C94540181E0089525B190919701892F7F
:1007400090E08095909587709927922F987F892BBC
:1007500085B9089584B1876084B9809181008260F1
:100760008093810087E39FEF9093850080938400BE
:1007700080916F00816080936F001092C50087E6C2
:100780008093C4008091C10088698093C1000E9459
:10079000F7028091600181111AC080E492E4AFE019
:1007A000B0E08093630190936401A0936501B093DE
:1007B00066018093670190936801A0936901B093EB
:1007C0006A0187EB91E090936201809361017894D4
:1007D00080E090E00E94F9088093970125B1809114
:1007E000970190E08095909587709927922F987F38
:1007F000892B85B986E2282E81E0382E9DE3492E8B
:1008000091E0592E27E7622E20E0722E39EF832ED9
:1008100030E0932E4DE0D42E5AE0E52E62E6A62E6F
:1008200061E0B62E02E011E07EE1C72EE8E6F0E0DE
:100830007491772309F43BC049E650E060E0FA0187
:1008400025913491F901A491AA23D9F090E004C034
:1008500080913C01811104C08091C00085FFF8CFD8
:10086000A093C6009F5FF901E90FF11DA491A111AA
:10087000F3CF8091C00085FD08C080913C018111BB
:1008800004C08091C00085FFF8CFD092C60004C09C
:1008900080913C01811104C08091C00085FFF8CF98
:1008A000E092C6006F5F4E5F5F4F7613C8CFE2E6FF
:1008B000F1E024912223A1F090E004C080913C015A
:1008C000811104C08091C00085FFF8CF2093C6003D
:1008D0009F5FE92FF0E0EE59FE4F24912111F2CFF6
:1008E00080913D018823E1F30E942401C82F8823D1
:1008F000B9F30E94F702F50124912223E1F090E080
:1009000004C080913C01811104C08091C00085FF2A
:10091000F8CF2093C6009F5FE92FF0E0EE59FE4F1D
:1009200024912111F2CF8091C00085FD08C08091F3
:100930003C01811104C08091C00085FFF8CFC093B5
:10094000C60004C080913C01811104C08091C000A8
:1009500085FFF8CFD092C60004C080913C01811180
:1009600004C08091C00085FFF8CFE092C600C0535C
:10097000C23009F455C108F415C1C33009F497C059
:10098000C43009F053C080E090E00E94F908805D17
:10099000282F082E000C330B3F938F931F930F9338
:1009A0001F92CF922EE131E03F932F930E943806A1
:1009B00090911E01EDB7FEB738960FB6F894FEBFC2
:1009C0000FBEEDBF9923E1F020E004C080913C010F
:1009D000811104C08091C00085FFF8CF9093C600BC
:1009E0002F5FE22FF0E0E25EFE4F90819111F2CF97
:1009F0008091C00085FD08C080913C01811104C038
:100A00008091C00085FFF8CFD092C60004C08091CD
:100A10003C01811104C08091C00085FFF8CFE092B5
:100A2000C600DBC080913C01811104C08091C000F0
:100A300085FFF8CFD092C60004C080913C0181119F
:100A400004C08091C00085FFF8CFE092C600F40199
:100A500024912223E1F090E004C080913C018111B7
:100A600004C08091C00085FFF8CF2093C6009F5F2F
:100A7000E92FF0E0E750FF4F24912111F2CF809150
:100A8000C00085FD08C080913C01811104C08091A7
:100A9000C00085FFF8CFD092C60004C080913C0111
:100AA0008111BDCF8091C00085FFF8CFB8CFF10193
:100AB00024912223A1F090E004C080913C01811197
:100AC00004C08091C00085FFF8CF2093C6009F5FCF
:100AD000E92FF0E0EA5DFE4F24912111F2CF8091E1
:100AE0003D018823E1F30E942401F82E811109C001
:100AF00080913D01882399F3F6CF80913C018111CB
:100B000004C08091C00085FFF8CFF092C6008FEC42
:100B10008F0D873020F00E945401882301F38091CB
:100B20006001811105C07FC080913C01811104C02A
:100B30008091C00085FFF8CFD092C60004C080919C
:100B40003C01811104C08091C00085FFF8CFE09284
:100B5000C600F3012491222309F485C080E004C07B
:100B600090913C01911104C09091C00095FFF8CF85
:100B70002093C6008F5FE82FF0E0E958FF4F2491E3
:100B80002111F2CF8091C00085FF69C0D092C600CC
:100B900004C080913C01811142CF8091C00085FF4B
:100BA000F8CF3DCFC13009F041CF80E090E00E9406
:100BB000F9088093970125B18091970190E0809585
:100BC000909587709927922F987F892B85B980916E
:100BD0006001811102C0C0936001F20124912223BF
:100BE000A1F090E004C080913C01811104C080918B
:100BF000C00085FFF8CF2093C6009F5FE92FF0E08B
:100C0000E35CFE4F24912111F2CF80913D018823B6
:100C1000E1F30E9424018D30C1F70E94F70206CE55
:100C200010926001DACF6F2DFF0C770B60537109C2
:100C300080E090E00E94010980E090E00E94F908C5
:100C40008093970125B18091970190E080959095D0
:100C500087709927922F987F892B85B904C080913E
:100C60003C01811193CF8091C00085FFF8CF8ECFDA
:100C7000AEE0B0E0EEE3F6E00C941D090D891E89AC
:100C80008F89988D26E02C831A83098397FF02C0F1
:100C900080E090E801979E838D83AE01455E5F4FB3
:100CA000698D7A8DCE0101960E9468064D815E8124
:100CB00057FD0AC02F813885421753070CF49A015B
:100CC000F801E20FF31F10822E96E4E00C9439092C
:100CD000ABE0B0E0EEE6F6E00C940F096C017B01AE
:100CE0008A01FC0117821682838181FFCCC1CE016B
:100CF00001963C01F6019381F70193FD859193FFE5
:100D000081917F01882309F4BAC1853239F493FDBA
:100D1000859193FF81917F01853229F4B60190E09E
:100D20000E945F08E7CF912C212C312CFFE1F315B5
:100D3000D8F08B3279F038F4803279F08332A1F434
:100D4000232D20611DC08D3261F0803369F4232D85
:100D5000216016C0832D8260382EE32DE4603E2E84
:100D60002AC0F32DF8601DC037FC2DC020ED280FE0
:100D70002A3040F08E32B9F436FC81C1232D206434
:100D8000322E19C036FE06C08AE0989E200D11242E
:100D9000922E11C0EAE02E9E200D1124222EF32D5A
:100DA000F0623F2E08C08C3621F4832D8068382EE7
:100DB00002C0883641F4F70193FD859193FF81913C
:100DC0007F018111B3CF982F9F7D9554933028F4E4
:100DD0000C5F1F4F9FE399830DC0833631F083373B
:100DE00071F0833509F059C021C0F80180818983F1
:100DF0000E5F1F4F88248394912C530113C0280148
:100E0000F2E04F0E511CF801A080B18036FE03C005
:100E1000692D70E002C06FEF7FEFC5010E9454089A
:100E20004C018201F32DFF773F2E16C0280122E0EE
:100E3000420E511CF801A080B18036FE03C0692D1E
:100E400070E002C06FEF7FEFC5010E9449084C01BE
:100E5000F32DF0683F2E820133FC1BC0822D90E001
:100E600088169906B0F4B60180E290E00E945F080F
:100E70002A94F4CFF50137FC859137FE81915F010B
:100E8000B60190E00E945F0821102A9421E0821AA6
:100E900091088114910471F7E8C0843611F0893605
:100EA00041F5F80137FE07C060817181828193812D
:100EB0000C5F1F4F08C060817181072E000C880BEA
:100EC000990B0E5F1F4FF32DFF763F2E97FF09C042
:100ED00090958095709561957F4F8F4F9F4FF068EB
:100EE0003F2E2AE030E0A3010E949B08882E86183E
:100EF00045C0853731F4232D2F7EB22E2AE030E015
:100F000025C0932D997FB92E8F36C1F018F48835FE
:100F100079F0B5C0803719F0883721F0B0C0E92FDB
:100F2000E061BE2EB4FE0DC0FB2DF460BF2E09C0E3
:100F300034FE0AC0292F2660B22E06C028E030E019
:100F400005C020E130E002C020E132E0F801B7FE48
:100F500007C060817181828193810C5F1F4F06C041
:100F60006081718180E090E00E5F1F4FA3010E94BD
:100F70009B08882E8618FB2DFF773F2E36FE0DC06E
:100F8000232D2E7FA22E891458F434FE0BC032FC80
:100F900009C0832D8E7EA82E05C0B82CA32C03C0BB
:100FA000B82C01C0B92CA4FE0FC0FE01E80DF11D44
:100FB0008081803321F49A2D997EA92E09C0A2FE4A
:100FC00006C0B394B39404C08A2D867809F0B39414
:100FD000A3FC11C0A0FE06C0B21488F4280C922C09
:100FE0009B180EC0B21460F4B60180E290E00E943B
:100FF0005F08B394F7CFB21418F42B1802C0982CE2
:10100000212CA4FE10C0B60180E390E00E945F088E
:10101000A2FE17C0A1FC03C088E790E002C088E5EB
:1010200090E0B6010CC08A2D867859F0A1FE02C06E
:101030008BE201C080E2A7FC8DE2B60190E00E9445
:101040005F08891438F4B60180E390E00E945F08DD
:101050009A94F7CF8A94F301E80DF11D8081B601CF
:1010600090E00E945F088110F5CF222009F442CE63
:10107000B60180E290E00E945F082A94F6CFF60164
:101080008681978102C08FEF9FEF2B96E2E10C944F
:101090002B09FC010590615070400110D8F7809534
:1010A00090958E0F9F1F0895FC0161507040019034
:1010B0000110D8F7809590958E0F9F1F08950F937C
:1010C0001F93CF93DF93FB01238121FD03C08FEF9B
:1010D0009FEF2CC022FF16C04681578124813581A5
:1010E0004217530744F4A081B1819D012F5F3F4F08
:1010F000318320838C93268137812F5F3F4F378345
:10110000268314C08B01EC01FB010084F185E02DE6
:101110000995892BE1F6D80116968D919C91179728
:10112000019617969C938E931697CE01DF91CF91DF
:101130001F910F910895FA01AA27283051F120310B
:1011400081F1E8946F936E7F6E5F7F4F8F4F9F4F5B
:10115000AF4FB1E03ED0B4E03CD0670F781F891F9D
:101160009A1FA11D680F791F8A1F911DA11D6A0F6B
:10117000711D811D911DA11D20D009F468943F911E
:101180002AE0269F11243019305D3193DEF6CF011D
:101190000895462F4770405D4193B3E00FD0C9F7E3
:1011A000F6CF462F4F70405D4A3318F0495D31FD50
:1011B0004052419302D0A9F7EACFB4E0A6959795A3
:1011C000879577956795BA95C9F700976105710579
:1011D00008959B01AC010A2E0694579547953795C3
:1011E0002795BA95C9F7620F731F841F951FA01D1D
:1011F0000895F999FECF92BD81BDF89A992780B5DF
:101200000895262FF999FECF1FBA92BD81BD20BD4A
:101210000FB6F894FA9AF99A0FBE019608952F9294
:101220003F924F925F926F927F928F929F92AF9276
:10123000BF92CF92DF92EF92FF920F931F93CF93C3
:10124000DF93CDB7DEB7CA1BDB0B0FB6F894DEBF5A
:101250000FBECDBF09942A88398848885F846E8480
:101260007D848C849B84AA84B984C884DF80EE80CA
:10127000FD800C811B81AA81B981CE0FD11D0FB6D3
:10128000F894DEBF0FBECDBFED010895F894FFCFF7
:1012900001115374617274696E672056616C7565D3
:0E12A0002069732073657420746F202563002D
:00000001FF
